{
  "_format": "hh-sol-artifact-1",
  "contractName": "Buccaneers",
  "sourceName": "contracts/Buccaneers.sol",
  "abi": [
    {
      "inputs": [],
      "stateMutability": "nonpayable",
      "type": "constructor"
    },
    {
      "anonymous": false,
      "inputs": [
        {
          "indexed": false,
          "internalType": "string",
          "name": "action",
          "type": "string"
        },
        {
          "indexed": false,
          "internalType": "uint256",
          "name": "tokenId",
          "type": "uint256"
        }
      ],
      "name": "ActionReceipt",
      "type": "event"
    },
    {
      "anonymous": false,
      "inputs": [
        {
          "indexed": false,
          "internalType": "uint256",
          "name": "tokenId",
          "type": "uint256"
        },
        {
          "indexed": false,
          "internalType": "address",
          "name": "owner",
          "type": "address"
        }
      ],
      "name": "AirdropReceipt",
      "type": "event"
    },
    {
      "anonymous": false,
      "inputs": [
        {
          "indexed": true,
          "internalType": "address",
          "name": "owner",
          "type": "address"
        },
        {
          "indexed": true,
          "internalType": "address",
          "name": "approved",
          "type": "address"
        },
        {
          "indexed": true,
          "internalType": "uint256",
          "name": "tokenId",
          "type": "uint256"
        }
      ],
      "name": "Approval",
      "type": "event"
    },
    {
      "anonymous": false,
      "inputs": [
        {
          "indexed": true,
          "internalType": "address",
          "name": "owner",
          "type": "address"
        },
        {
          "indexed": true,
          "internalType": "address",
          "name": "operator",
          "type": "address"
        },
        {
          "indexed": false,
          "internalType": "bool",
          "name": "approved",
          "type": "bool"
        }
      ],
      "name": "ApprovalForAll",
      "type": "event"
    },
    {
      "anonymous": false,
      "inputs": [
        {
          "indexed": false,
          "internalType": "uint256",
          "name": "_fromTokenId",
          "type": "uint256"
        },
        {
          "indexed": false,
          "internalType": "uint256",
          "name": "_toTokenId",
          "type": "uint256"
        }
      ],
      "name": "BatchMetadataUpdate",
      "type": "event"
    },
    {
      "anonymous": false,
      "inputs": [
        {
          "indexed": false,
          "internalType": "string",
          "name": "message",
          "type": "string"
        },
        {
          "indexed": false,
          "internalType": "uint256",
          "name": "tokenId",
          "type": "uint256"
        },
        {
          "indexed": false,
          "internalType": "string",
          "name": "uri",
          "type": "string"
        }
      ],
      "name": "BuccaneerURIUpdate",
      "type": "event"
    },
    {
      "anonymous": false,
      "inputs": [
        {
          "indexed": false,
          "internalType": "uint256",
          "name": "_tokenId",
          "type": "uint256"
        }
      ],
      "name": "MetadataUpdate",
      "type": "event"
    },
    {
      "anonymous": false,
      "inputs": [
        {
          "indexed": false,
          "internalType": "string",
          "name": "message",
          "type": "string"
        },
        {
          "indexed": false,
          "internalType": "uint256",
          "name": "tokenId",
          "type": "uint256"
        },
        {
          "indexed": false,
          "internalType": "address",
          "name": "owner",
          "type": "address"
        }
      ],
      "name": "NewBuccaneer",
      "type": "event"
    },
    {
      "anonymous": false,
      "inputs": [
        {
          "indexed": true,
          "internalType": "address",
          "name": "previousOwner",
          "type": "address"
        },
        {
          "indexed": true,
          "internalType": "address",
          "name": "newOwner",
          "type": "address"
        }
      ],
      "name": "OwnershipTransferred",
      "type": "event"
    },
    {
      "anonymous": false,
      "inputs": [
        {
          "indexed": true,
          "internalType": "address",
          "name": "from",
          "type": "address"
        },
        {
          "indexed": true,
          "internalType": "address",
          "name": "to",
          "type": "address"
        },
        {
          "indexed": true,
          "internalType": "uint256",
          "name": "tokenId",
          "type": "uint256"
        }
      ],
      "name": "Transfer",
      "type": "event"
    },
    {
      "anonymous": false,
      "inputs": [
        {
          "indexed": false,
          "internalType": "address",
          "name": "owner",
          "type": "address"
        },
        {
          "indexed": false,
          "internalType": "uint256",
          "name": "charity",
          "type": "uint256"
        },
        {
          "indexed": false,
          "internalType": "uint256",
          "name": "treasure",
          "type": "uint256"
        }
      ],
      "name": "TxReceipt",
      "type": "event"
    },
    {
      "inputs": [
        {
          "internalType": "address",
          "name": "to",
          "type": "address"
        },
        {
          "internalType": "uint256",
          "name": "tokenId",
          "type": "uint256"
        }
      ],
      "name": "approve",
      "outputs": [],
      "stateMutability": "nonpayable",
      "type": "function"
    },
    {
      "inputs": [
        {
          "internalType": "uint16",
          "name": "attacker",
          "type": "uint16"
        },
        {
          "internalType": "uint16",
          "name": "defender",
          "type": "uint16"
        }
      ],
      "name": "attackBuccaneer",
      "outputs": [],
      "stateMutability": "payable",
      "type": "function"
    },
    {
      "inputs": [
        {
          "internalType": "address",
          "name": "owner",
          "type": "address"
        }
      ],
      "name": "balanceOf",
      "outputs": [
        {
          "internalType": "uint256",
          "name": "",
          "type": "uint256"
        }
      ],
      "stateMutability": "view",
      "type": "function"
    },
    {
      "inputs": [],
      "name": "closeGame",
      "outputs": [],
      "stateMutability": "nonpayable",
      "type": "function"
    },
    {
      "inputs": [],
      "name": "closeMint",
      "outputs": [],
      "stateMutability": "nonpayable",
      "type": "function"
    },
    {
      "inputs": [
        {
          "internalType": "uint16",
          "name": "defender",
          "type": "uint16"
        }
      ],
      "name": "defendBuccaneer",
      "outputs": [],
      "stateMutability": "payable",
      "type": "function"
    },
    {
      "inputs": [],
      "name": "gameOpen",
      "outputs": [
        {
          "internalType": "bool",
          "name": "",
          "type": "bool"
        }
      ],
      "stateMutability": "view",
      "type": "function"
    },
    {
      "inputs": [
        {
          "internalType": "uint256",
          "name": "tokenId",
          "type": "uint256"
        }
      ],
      "name": "getApproved",
      "outputs": [
        {
          "internalType": "address",
          "name": "",
          "type": "address"
        }
      ],
      "stateMutability": "view",
      "type": "function"
    },
    {
      "inputs": [
        {
          "internalType": "address",
          "name": "owner",
          "type": "address"
        }
      ],
      "name": "getTokensOwnedBy",
      "outputs": [
        {
          "internalType": "uint256[]",
          "name": "",
          "type": "uint256[]"
        }
      ],
      "stateMutability": "view",
      "type": "function"
    },
    {
      "inputs": [
        {
          "internalType": "address",
          "name": "owner",
          "type": "address"
        },
        {
          "internalType": "address",
          "name": "operator",
          "type": "address"
        }
      ],
      "name": "isApprovedForAll",
      "outputs": [
        {
          "internalType": "bool",
          "name": "",
          "type": "bool"
        }
      ],
      "stateMutability": "view",
      "type": "function"
    },
    {
      "inputs": [],
      "name": "mintBuccaneer",
      "outputs": [],
      "stateMutability": "payable",
      "type": "function"
    },
    {
      "inputs": [],
      "name": "mintOpen",
      "outputs": [
        {
          "internalType": "bool",
          "name": "",
          "type": "bool"
        }
      ],
      "stateMutability": "view",
      "type": "function"
    },
    {
      "inputs": [],
      "name": "name",
      "outputs": [
        {
          "internalType": "string",
          "name": "",
          "type": "string"
        }
      ],
      "stateMutability": "view",
      "type": "function"
    },
    {
      "inputs": [],
      "name": "openGame",
      "outputs": [],
      "stateMutability": "nonpayable",
      "type": "function"
    },
    {
      "inputs": [],
      "name": "openMint",
      "outputs": [],
      "stateMutability": "nonpayable",
      "type": "function"
    },
    {
      "inputs": [],
      "name": "owner",
      "outputs": [
        {
          "internalType": "address",
          "name": "",
          "type": "address"
        }
      ],
      "stateMutability": "view",
      "type": "function"
    },
    {
      "inputs": [
        {
          "internalType": "uint256",
          "name": "tokenId",
          "type": "uint256"
        }
      ],
      "name": "ownerOf",
      "outputs": [
        {
          "internalType": "address",
          "name": "",
          "type": "address"
        }
      ],
      "stateMutability": "view",
      "type": "function"
    },
    {
      "inputs": [],
      "name": "renounceOwnership",
      "outputs": [],
      "stateMutability": "nonpayable",
      "type": "function"
    },
    {
      "inputs": [
        {
          "internalType": "address",
          "name": "from",
          "type": "address"
        },
        {
          "internalType": "address",
          "name": "to",
          "type": "address"
        },
        {
          "internalType": "uint256",
          "name": "tokenId",
          "type": "uint256"
        }
      ],
      "name": "safeTransferFrom",
      "outputs": [],
      "stateMutability": "nonpayable",
      "type": "function"
    },
    {
      "inputs": [
        {
          "internalType": "address",
          "name": "from",
          "type": "address"
        },
        {
          "internalType": "address",
          "name": "to",
          "type": "address"
        },
        {
          "internalType": "uint256",
          "name": "tokenId",
          "type": "uint256"
        },
        {
          "internalType": "bytes",
          "name": "data",
          "type": "bytes"
        }
      ],
      "name": "safeTransferFrom",
      "outputs": [],
      "stateMutability": "nonpayable",
      "type": "function"
    },
    {
      "inputs": [
        {
          "internalType": "address",
          "name": "operator",
          "type": "address"
        },
        {
          "internalType": "bool",
          "name": "approved",
          "type": "bool"
        }
      ],
      "name": "setApprovalForAll",
      "outputs": [],
      "stateMutability": "nonpayable",
      "type": "function"
    },
    {
      "inputs": [
        {
          "internalType": "bytes4",
          "name": "interfaceId",
          "type": "bytes4"
        }
      ],
      "name": "supportsInterface",
      "outputs": [
        {
          "internalType": "bool",
          "name": "",
          "type": "bool"
        }
      ],
      "stateMutability": "view",
      "type": "function"
    },
    {
      "inputs": [],
      "name": "symbol",
      "outputs": [
        {
          "internalType": "string",
          "name": "",
          "type": "string"
        }
      ],
      "stateMutability": "view",
      "type": "function"
    },
    {
      "inputs": [
        {
          "internalType": "uint256",
          "name": "index",
          "type": "uint256"
        }
      ],
      "name": "tokenByIndex",
      "outputs": [
        {
          "internalType": "uint256",
          "name": "",
          "type": "uint256"
        }
      ],
      "stateMutability": "view",
      "type": "function"
    },
    {
      "inputs": [
        {
          "internalType": "address",
          "name": "owner",
          "type": "address"
        },
        {
          "internalType": "uint256",
          "name": "index",
          "type": "uint256"
        }
      ],
      "name": "tokenOfOwnerByIndex",
      "outputs": [
        {
          "internalType": "uint256",
          "name": "",
          "type": "uint256"
        }
      ],
      "stateMutability": "view",
      "type": "function"
    },
    {
      "inputs": [
        {
          "internalType": "uint256",
          "name": "tokenId",
          "type": "uint256"
        }
      ],
      "name": "tokenURI",
      "outputs": [
        {
          "internalType": "string",
          "name": "",
          "type": "string"
        }
      ],
      "stateMutability": "view",
      "type": "function"
    },
    {
      "inputs": [],
      "name": "totalSupply",
      "outputs": [
        {
          "internalType": "uint256",
          "name": "",
          "type": "uint256"
        }
      ],
      "stateMutability": "view",
      "type": "function"
    },
    {
      "inputs": [
        {
          "internalType": "uint16",
          "name": "trainee",
          "type": "uint16"
        }
      ],
      "name": "trainBuccaneer",
      "outputs": [],
      "stateMutability": "payable",
      "type": "function"
    },
    {
      "inputs": [
        {
          "internalType": "address",
          "name": "from",
          "type": "address"
        },
        {
          "internalType": "address",
          "name": "to",
          "type": "address"
        },
        {
          "internalType": "uint256",
          "name": "tokenId",
          "type": "uint256"
        }
      ],
      "name": "transferFrom",
      "outputs": [],
      "stateMutability": "nonpayable",
      "type": "function"
    },
    {
      "inputs": [
        {
          "internalType": "address",
          "name": "newOwner",
          "type": "address"
        }
      ],
      "name": "transferOwnership",
      "outputs": [],
      "stateMutability": "nonpayable",
      "type": "function"
    },
    {
      "inputs": [
        {
          "internalType": "uint256",
          "name": "tokenId",
          "type": "uint256"
        },
        {
          "internalType": "string",
          "name": "newURI",
          "type": "string"
        }
      ],
      "name": "updateURI",
      "outputs": [],
      "stateMutability": "nonpayable",
      "type": "function"
    },
    {
      "inputs": [
        {
          "internalType": "address",
          "name": "",
          "type": "address"
        }
      ],
      "name": "whitelist",
      "outputs": [
        {
          "internalType": "bool",
          "name": "",
          "type": "bool"
        }
      ],
      "stateMutability": "view",
      "type": "function"
    }
  ],
  "bytecode": "0x600b805461ffff60a01b191690556000600d819055600e5560e06040526025608081815290620030d260a0398051620000419160159160209091019062000231565b50601680546001600160a01b0319908116737689de2dd1d9df3d442dccffaacb0017f5ddcc6617909155601780548216735ffb4861abc8ef94f6e796e6790fa2c388783e3a1790556018805490911673086b8c2422931011418ab6ae6f872f5fcf3aacab179055348015620000b557600080fd5b506040805180820182526009815268109bdd108815195cdd60ba1b602080830191825283518085019094526006845265424f5442544760d01b908401528151919291620001059160009162000231565b5080516200011b90600190602084019062000231565b5050506200013862000132620001db60201b60201c565b620001df565b600f6020527f75c5c2541ce3728f656198fd519f3450bde054848983834a37ff7d26298832f58054600160ff1991821681179092557390f79bf6eb2c4f870365e785982e1f101e93b9066000527f622c66e7676812aa4e4048f1672daa972e1a136eb221528be1f1e4a8ee8d24028054909116909117905566025844398d400060105566038d7ea4c6800060118190556012819055601381905560145562000314565b3390565b600b80546001600160a01b038381166001600160a01b0319831681179093556040519116919082907f8be0079c531659141344cd1fd0a4f28419497f9722a3daafe3b4186f6b6457e090600090a35050565b8280546200023f90620002d7565b90600052602060002090601f016020900481019282620002635760008555620002ae565b82601f106200027e57805160ff1916838001178555620002ae565b82800160010185558215620002ae579182015b82811115620002ae57825182559160200191906001019062000291565b50620002bc929150620002c0565b5090565b5b80821115620002bc5760008155600101620002c1565b600181811c90821680620002ec57607f821691505b602082108114156200030e57634e487b7160e01b600052602260045260246000fd5b50919050565b612dae80620003246000396000f3fe6080604052600436106101e35760003560e01c80636352211e11610102578063a22cb46511610095578063c87b56dd11610064578063c87b56dd1461053f578063e985e9c51461055f578063f2fde38b146105a8578063fa12d782146105c857600080fd5b8063a22cb465146104d7578063b88d4fde146104f7578063bce6d67214610517578063c7f222231461052c57600080fd5b8063786b844b116100d1578063786b844b1461045f5780638da5cb5b1461047457806395d89b41146104925780639b19251a146104a757600080fd5b80636352211e146103f557806364f101f01461041557806370a082311461042a578063715018a61461044a57600080fd5b80632f745c591161017a5780633d4392c0116101495780633d4392c014610375578063405b8c47146103a257806342842e0e146103b55780634f6ccce7146103d557600080fd5b80632f745c591461030c57806331cc894b1461032c57806331d41c69146103345780633cca779b1461035457600080fd5b806318160ddd116101b657806318160ddd1461029957806319563308146102b857806323b872dd146102cb57806324bbd049146102eb57600080fd5b806301ffc9a7146101e857806306fdde031461021d578063081812fc1461023f578063095ea7b314610277575b600080fd5b3480156101f457600080fd5b5061020861020336600461259e565b6105dd565b60405190151581526020015b60405180910390f35b34801561022957600080fd5b506102326105ee565b6040516102149190612613565b34801561024b57600080fd5b5061025f61025a366004612626565b610680565b6040516001600160a01b039091168152602001610214565b34801561028357600080fd5b5061029761029236600461265b565b6106a7565b005b3480156102a557600080fd5b506009545b604051908152602001610214565b6102976102c6366004612697565b6107c2565b3480156102d757600080fd5b506102976102e63660046126b2565b61091b565b3480156102f757600080fd5b50600b5461020890600160a01b900460ff1681565b34801561031857600080fd5b506102aa61032736600461265b565b61094c565b6102976109e2565b34801561034057600080fd5b5061029761034f36600461277a565b610cab565b34801561036057600080fd5b50600b5461020890600160a81b900460ff1681565b34801561038157600080fd5b506103956103903660046127d5565b610ccb565b60405161021491906127f0565b6102976103b0366004612834565b610d6d565b3480156103c157600080fd5b506102976103d03660046126b2565b610f69565b3480156103e157600080fd5b506102aa6103f0366004612626565b610f84565b34801561040157600080fd5b5061025f610410366004612626565b611017565b34801561042157600080fd5b50610297611077565b34801561043657600080fd5b506102aa6104453660046127d5565b61108e565b34801561045657600080fd5b50610297611114565b34801561046b57600080fd5b50610297611128565b34801561048057600080fd5b50600b546001600160a01b031661025f565b34801561049e57600080fd5b50610232611140565b3480156104b357600080fd5b506102086104c23660046127d5565b600f6020526000908152604090205460ff1681565b3480156104e357600080fd5b506102976104f2366004612867565b61114f565b34801561050357600080fd5b506102976105123660046128a3565b61115a565b34801561052357600080fd5b50610297611192565b61029761053a366004612697565b6111af565b34801561054b57600080fd5b5061023261055a366004612626565b6112f4565b34801561056b57600080fd5b5061020861057a36600461291f565b6001600160a01b03918216600090815260056020908152604080832093909416825291909152205460ff1690565b3480156105b457600080fd5b506102976105c33660046127d5565b6112ff565b3480156105d457600080fd5b50610297611375565b60006105e882611392565b92915050565b6060600080546105fd90612949565b80601f016020809104026020016040519081016040528092919081815260200182805461062990612949565b80156106765780601f1061064b57610100808354040283529160200191610676565b820191906000526020600020905b81548152906001019060200180831161065957829003601f168201915b5050505050905090565b600061068b826113b7565b506000908152600460205260409020546001600160a01b031690565b60006106b282611017565b9050806001600160a01b0316836001600160a01b031614156107255760405162461bcd60e51b815260206004820152602160248201527f4552433732313a20617070726f76616c20746f2063757272656e74206f776e656044820152603960f91b60648201526084015b60405180910390fd5b336001600160a01b03821614806107415750610741813361057a565b6107b35760405162461bcd60e51b815260206004820152603d60248201527f4552433732313a20617070726f76652063616c6c6572206973206e6f7420746f60448201527f6b656e206f776e6572206f7220617070726f76656420666f7220616c6c000000606482015260840161071c565b6107bd8383611416565b505050565b3332146107e15760405162461bcd60e51b815260040161071c90612984565b600b54600160a81b900460ff1661080a5760405162461bcd60e51b815260040161071c906129d9565b6013543410156108765760405162461bcd60e51b815260206004820152603160248201527f596f75206d7573742070617920302e30303120657468657220746f20646566656044820152703732103cb7bab910313ab1b1b0b732b2b960791b606482015260840161071c565b60135461088290611484565b3361089061ffff8316611017565b6001600160a01b0316146108b65760405162461bcd60e51b815260040161071c90612a03565b6040805181815260069181019190915265191959995b9960d21b606082015261ffff821660208201527f997a98c2ae8b2721d0f7bdc2488ff50d1c6c6ea3724b602e6dd0611a553fb15b906080015b60405180910390a161091860288061150a565b50565b6109253382611764565b6109415760405162461bcd60e51b815260040161071c90612a3a565b6107bd8383836117e3565b60006109578361108e565b82106109b95760405162461bcd60e51b815260206004820152602b60248201527f455243373231456e756d657261626c653a206f776e657220696e646578206f7560448201526a74206f6620626f756e647360a81b606482015260840161071c565b506001600160a01b03919091166000908152600760209081526040808320938352929052205490565b333214610a015760405162461bcd60e51b815260040161071c90612984565b610798600c5410610a545760405162461bcd60e51b815260206004820152601f60248201527f416c6c2062756363616e656572732068617665206265656e206d696e74656400604482015260640161071c565b336000908152600f602052604090205460ff1680610a7c57506016546001600160a01b031633145b15610afb57601054341015610aea5760405162461bcd60e51b815260206004820152602e60248201527f596f75206d7573742070617920302e303030363620657468657220746f206d6960448201526d373a103090313ab1b1b0b732b2b960911b606482015260840161071c565b601054610af690611484565b610bbd565b600b54600160a01b900460ff16610b4a5760405162461bcd60e51b815260206004820152601360248201527226b4b73a34b7339034b9903737ba1037b832b760691b604482015260640161071c565b601154341015610bb15760405162461bcd60e51b815260206004820152602c60248201527f596f75206d7573742070617920302e30303120657468657220746f206d696e7460448201526b103090313ab1b1b0b732b2b960a11b606482015260840161071c565b601154610bbd90611484565b610bc933600c54611954565b60006040518060400160405280600b81526020016a383630b1b2b437b63232b960a91b8152509050610c1f600c54601583604051602001610c0b929190612aa3565b60405160208183030381529060405261196e565b604080518082018252601481527313995dc8109d58d8d85b99595c881b5a5b9d195960621b6020820152600c54915190917fd5115c50021c97e62a499cd063ce5fb80a83e77a030d3a5a83f720813b9d5a1491610c7f9184913390612b4a565b60405180910390a1600c8054906000610c9783612b93565b9190505550610ca760198061150a565b5050565b610cb3611a40565b610ca782601583604051602001610c0b929190612aa3565b60606000610cd88361108e565b905060008167ffffffffffffffff811115610cf557610cf56126ee565b604051908082528060200260200182016040528015610d1e578160200160208202803683370190505b50905060005b82811015610d6557610d36858261094c565b828281518110610d4857610d48612bae565b602090810291909101015280610d5d81612b93565b915050610d24565b509392505050565b333214610d8c5760405162461bcd60e51b815260040161071c90612984565b600b54600160a81b900460ff16610db55760405162461bcd60e51b815260040161071c906129d9565b601254341015610e245760405162461bcd60e51b815260206004820152603460248201527f596f75206d7573742070617920302e30303120657468657220746f206174746160448201527331b59030b737ba3432b910313ab1b1b0b732b2b960611b606482015260840161071c565b601254610e3090611484565b33610e3e61ffff8416611017565b6001600160a01b031614610e645760405162461bcd60e51b815260040161071c90612a03565b33610e7261ffff8316611017565b6001600160a01b03161415610ec95760405162461bcd60e51b815260206004820152601a60248201527f596f752063616e6e6f742061747461636b20796f757273656c66000000000000604482015260640161071c565b604080518082019091526007815266030ba3a30b1b5960cd1b60208201526000610ef661ffff8416611a9a565b905060008282604051602001610f0d929190612bc4565b60405160208183030381529060405290507f997a98c2ae8b2721d0f7bdc2488ff50d1c6c6ea3724b602e6dd0611a553fb15b8186604051610f4f929190612bf3565b60405180910390a1610f6260288061150a565b5050505050565b6107bd8383836040518060200160405280600081525061115a565b6000610f8f60095490565b8210610ff25760405162461bcd60e51b815260206004820152602c60248201527f455243373231456e756d657261626c653a20676c6f62616c20696e646578206f60448201526b7574206f6620626f756e647360a01b606482015260840161071c565b6009828154811061100557611005612bae565b90600052602060002001549050919050565b6000818152600260205260408120546001600160a01b0316806105e85760405162461bcd60e51b8152602060048201526018602482015277115490cdcc8c4e881a5b9d985b1a59081d1bdad95b88125160421b604482015260640161071c565b61107f611a40565b600b805460ff60a01b19169055565b60006001600160a01b0382166110f85760405162461bcd60e51b815260206004820152602960248201527f4552433732313a2061646472657373207a65726f206973206e6f7420612076616044820152683634b21037bbb732b960b91b606482015260840161071c565b506001600160a01b031660009081526003602052604090205490565b61111c611a40565b6111266000611b2f565b565b611130611a40565b600b805461ffff60a01b19169055565b6060600180546105fd90612949565b610ca7338383611b81565b6111643383611764565b6111805760405162461bcd60e51b815260040161071c90612a3a565b61118c84848484611c50565b50505050565b61119a611a40565b600b805460ff60a01b1916600160a01b179055565b3332146111ce5760405162461bcd60e51b815260040161071c90612984565b600b54600160a81b900460ff166111f75760405162461bcd60e51b815260040161071c906129d9565b6014543410156112625760405162461bcd60e51b815260206004820152603060248201527f596f75206d7573742070617920302e30303120657468657220746f207472616960448201526f37103cb7bab910313ab1b1b0b732b2b960811b606482015260840161071c565b60135461126e90611484565b3361127c61ffff8316611017565b6001600160a01b0316146112a25760405162461bcd60e51b815260040161071c90612a03565b60408051818152600591810191909152643a3930b4b760d91b606082015261ffff821660208201527f997a98c2ae8b2721d0f7bdc2488ff50d1c6c6ea3724b602e6dd0611a553fb15b90608001610905565b60606105e882611c83565b611307611a40565b6001600160a01b03811661136c5760405162461bcd60e51b815260206004820152602660248201527f4f776e61626c653a206e6577206f776e657220697320746865207a65726f206160448201526564647265737360d01b606482015260840161071c565b61091881611b2f565b61137d611a40565b600b805460ff60a81b1916600160a81b179055565b60006001600160e01b0319821663780e9d6360e01b14806105e857506105e882611d8c565b6000818152600260205260409020546001600160a01b03166109185760405162461bcd60e51b8152602060048201526018602482015277115490cdcc8c4e881a5b9d985b1a59081d1bdad95b88125160421b604482015260640161071c565b600081815260046020526040902080546001600160a01b0319166001600160a01b038416908117909155819061144b82611017565b6001600160a01b03167f8c5be1e5ebec7d5bd14f71427d1e84f3dd0314c0f7b2291e5b200ac8c7c3b92560405160405180910390a45050565b803410156114cc5760405162461bcd60e51b8152602060048201526015602482015274139bdd08195b9bdd59da08115d1a195c881cd95b9d605a1b604482015260640161071c565b8034111561091857336108fc6114e28334612c19565b6040518115909202916000818181858888f19350505050158015610ca7573d6000803e3d6000fd5b6000611517606434612c30565b905060006115258483612c52565b905060006115338484612c52565b6017546040519192506000916001600160a01b039091169084908381818185875af1925050503d8060008114611585576040519150601f19603f3d011682016040523d82523d6000602084013e61158a565b606091505b50509050806115db5760405162461bcd60e51b815260206004820152601760248201527f43686172697479207472616e73666572206661696c6564000000000000000000604482015260640161071c565b6018546040516001600160a01b03909116908390600081818185875af1925050503d8060008114611628576040519150601f19603f3d011682016040523d82523d6000602084013e61162d565b606091505b505080915050806116805760405162461bcd60e51b815260206004820152601860248201527f5472656173757265207472616e73666572206661696c65640000000000000000604482015260640161071c565b6016546040516001600160a01b03909116904790600081818185875af1925050503d80600081146116cd576040519150601f19603f3d011682016040523d82523d6000602084013e6116d2565b606091505b5050809150508061171b5760405162461bcd60e51b815260206004820152601360248201527213dd5c881d1c985b9cd9995c8819985a5b1959606a1b604482015260640161071c565b60408051338152602081018590529081018390527f2b3c0372e96b0139236f9e95e88909149e5a3a9b92cf549672128db58049a7ae9060600160405180910390a1505050505050565b60008061177083611017565b9050806001600160a01b0316846001600160a01b031614806117b757506001600160a01b0380821660009081526005602090815260408083209388168352929052205460ff165b806117db5750836001600160a01b03166117d084610680565b6001600160a01b0316145b949350505050565b826001600160a01b03166117f682611017565b6001600160a01b03161461181c5760405162461bcd60e51b815260040161071c90612c71565b6001600160a01b03821661187e5760405162461bcd60e51b8152602060048201526024808201527f4552433732313a207472616e7366657220746f20746865207a65726f206164646044820152637265737360e01b606482015260840161071c565b61188b8383836001611db1565b826001600160a01b031661189e82611017565b6001600160a01b0316146118c45760405162461bcd60e51b815260040161071c90612c71565b600081815260046020908152604080832080546001600160a01b03199081169091556001600160a01b0387811680865260038552838620805460001901905590871680865283862080546001019055868652600290945282852080549092168417909155905184937fddf252ad1be2c89b69c2b068fc378daa952ba7f163c4a11628f55a4df523b3ef91a4505050565b610ca7828260405180602001604052806000815250611dbd565b6000828152600260205260409020546001600160a01b03166119e95760405162461bcd60e51b815260206004820152602e60248201527f45524337323155524953746f726167653a2055524920736574206f66206e6f6e60448201526d32bc34b9ba32b73a103a37b5b2b760911b606482015260840161071c565b60008281526006602090815260409091208251611a08928401906124ef565b506040518281527ff8e1a15aba9398e019f0b49df1a4fde98ee17ae345cb5f6b5e2c27f5033e8ce79060200160405180910390a15050565b600b546001600160a01b031633146111265760405162461bcd60e51b815260206004820181905260248201527f4f776e61626c653a2063616c6c6572206973206e6f7420746865206f776e6572604482015260640161071c565b60606000611aa783611df0565b600101905060008167ffffffffffffffff811115611ac757611ac76126ee565b6040519080825280601f01601f191660200182016040528015611af1576020820181803683370190505b5090508181016020015b600019016f181899199a1a9b1b9c1cb0b131b232b360811b600a86061a8153600a8504945084611b2a57610d65565b611afb565b600b80546001600160a01b038381166001600160a01b0319831681179093556040519116919082907f8be0079c531659141344cd1fd0a4f28419497f9722a3daafe3b4186f6b6457e090600090a35050565b816001600160a01b0316836001600160a01b03161415611be35760405162461bcd60e51b815260206004820152601960248201527f4552433732313a20617070726f766520746f2063616c6c657200000000000000604482015260640161071c565b6001600160a01b03838116600081815260056020908152604080832094871680845294825291829020805460ff191686151590811790915591519182527f17307eab39ab6107e8899845ad3d59bd9653f200f220920489ca2b5937696c31910160405180910390a3505050565b611c5b8484846117e3565b611c6784848484611ec8565b61118c5760405162461bcd60e51b815260040161071c90612cb6565b6060611c8e826113b7565b60008281526006602052604081208054611ca790612949565b80601f0160208091040260200160405190810160405280929190818152602001828054611cd390612949565b8015611d205780601f10611cf557610100808354040283529160200191611d20565b820191906000526020600020905b815481529060010190602001808311611d0357829003601f168201915b505050505090506000611d3e60408051602081019091526000815290565b9050805160001415611d51575092915050565b815115611d83578082604051602001611d6b929190612bc4565b60405160208183030381529060405292505050919050565b6117db84611fd5565b60006001600160e01b03198216632483248360e11b14806105e857506105e882612049565b61118c84848484612099565b611dc783836121c6565b611dd46000848484611ec8565b6107bd5760405162461bcd60e51b815260040161071c90612cb6565b60008072184f03e93ff9f4daa797ed6e38ed64bf6a1f0160401b8310611e2f5772184f03e93ff9f4daa797ed6e38ed64bf6a1f0160401b830492506040015b6d04ee2d6d415b85acef81000000008310611e5b576d04ee2d6d415b85acef8100000000830492506020015b662386f26fc100008310611e7957662386f26fc10000830492506010015b6305f5e1008310611e91576305f5e100830492506008015b6127108310611ea557612710830492506004015b60648310611eb7576064830492506002015b600a83106105e85760010192915050565b60006001600160a01b0384163b15611fca57604051630a85bd0160e11b81526001600160a01b0385169063150b7a0290611f0c903390899088908890600401612d08565b602060405180830381600087803b158015611f2657600080fd5b505af1925050508015611f56575060408051601f3d908101601f19168201909252611f5391810190612d45565b60015b611fb0573d808015611f84576040519150601f19603f3d011682016040523d82523d6000602084013e611f89565b606091505b508051611fa85760405162461bcd60e51b815260040161071c90612cb6565b805181602001fd5b6001600160e01b031916630a85bd0160e11b1490506117db565b506001949350505050565b6060611fe0826113b7565b6000611ff760408051602081019091526000815290565b905060008151116120175760405180602001604052806000815250612042565b8061202184611a9a565b604051602001612032929190612bc4565b6040516020818303038152906040525b9392505050565b60006001600160e01b031982166380ac58cd60e01b148061207a57506001600160e01b03198216635b5e139f60e01b145b806105e857506301ffc9a760e01b6001600160e01b03198316146105e8565b60018111156121085760405162461bcd60e51b815260206004820152603560248201527f455243373231456e756d657261626c653a20636f6e7365637574697665207472604482015274185b9cd9995c9cc81b9bdd081cdd5c1c1bdc9d1959605a1b606482015260840161071c565b816001600160a01b0385166121645761215f81600980546000838152600a60205260408120829055600182018355919091527f6e1540171b6c0c960b71a7020d9f60077f6af931a8bbf590da0223dacf75c7af0155565b612187565b836001600160a01b0316856001600160a01b03161461218757612187858261235f565b6001600160a01b0384166121a35761219e816123fc565b610f62565b846001600160a01b0316846001600160a01b031614610f6257610f6284826124ab565b6001600160a01b03821661221c5760405162461bcd60e51b815260206004820181905260248201527f4552433732313a206d696e7420746f20746865207a65726f2061646472657373604482015260640161071c565b6000818152600260205260409020546001600160a01b0316156122815760405162461bcd60e51b815260206004820152601c60248201527f4552433732313a20746f6b656e20616c7265616479206d696e74656400000000604482015260640161071c565b61228f600083836001611db1565b6000818152600260205260409020546001600160a01b0316156122f45760405162461bcd60e51b815260206004820152601c60248201527f4552433732313a20746f6b656e20616c7265616479206d696e74656400000000604482015260640161071c565b6001600160a01b038216600081815260036020908152604080832080546001019055848352600290915280822080546001600160a01b0319168417905551839291907fddf252ad1be2c89b69c2b068fc378daa952ba7f163c4a11628f55a4df523b3ef908290a45050565b6000600161236c8461108e565b6123769190612c19565b6000838152600860205260409020549091508082146123c9576001600160a01b03841660009081526007602090815260408083208584528252808320548484528184208190558352600890915290208190555b5060009182526008602090815260408084208490556001600160a01b039094168352600781528383209183525290812055565b60095460009061240e90600190612c19565b6000838152600a60205260408120546009805493945090928490811061243657612436612bae565b90600052602060002001549050806009838154811061245757612457612bae565b6000918252602080832090910192909255828152600a9091526040808220849055858252812055600980548061248f5761248f612d62565b6001900381819060005260206000200160009055905550505050565b60006124b68361108e565b6001600160a01b039093166000908152600760209081526040808320868452825280832085905593825260089052919091209190915550565b8280546124fb90612949565b90600052602060002090601f01602090048101928261251d5760008555612563565b82601f1061253657805160ff1916838001178555612563565b82800160010185558215612563579182015b82811115612563578251825591602001919060010190612548565b5061256f929150612573565b5090565b5b8082111561256f5760008155600101612574565b6001600160e01b03198116811461091857600080fd5b6000602082840312156125b057600080fd5b813561204281612588565b60005b838110156125d65781810151838201526020016125be565b8381111561118c5750506000910152565b600081518084526125ff8160208601602086016125bb565b601f01601f19169290920160200192915050565b60208152600061204260208301846125e7565b60006020828403121561263857600080fd5b5035919050565b80356001600160a01b038116811461265657600080fd5b919050565b6000806040838503121561266e57600080fd5b6126778361263f565b946020939093013593505050565b803561ffff8116811461265657600080fd5b6000602082840312156126a957600080fd5b61204282612685565b6000806000606084860312156126c757600080fd5b6126d08461263f565b92506126de6020850161263f565b9150604084013590509250925092565b634e487b7160e01b600052604160045260246000fd5b600067ffffffffffffffff8084111561271f5761271f6126ee565b604051601f8501601f19908116603f01168101908282118183101715612747576127476126ee565b8160405280935085815286868601111561276057600080fd5b858560208301376000602087830101525050509392505050565b6000806040838503121561278d57600080fd5b82359150602083013567ffffffffffffffff8111156127ab57600080fd5b8301601f810185136127bc57600080fd5b6127cb85823560208401612704565b9150509250929050565b6000602082840312156127e757600080fd5b6120428261263f565b6020808252825182820181905260009190848201906040850190845b818110156128285783518352928401929184019160010161280c565b50909695505050505050565b6000806040838503121561284757600080fd5b61285083612685565b915061285e60208401612685565b90509250929050565b6000806040838503121561287a57600080fd5b6128838361263f565b91506020830135801515811461289857600080fd5b809150509250929050565b600080600080608085870312156128b957600080fd5b6128c28561263f565b93506128d06020860161263f565b925060408501359150606085013567ffffffffffffffff8111156128f357600080fd5b8501601f8101871361290457600080fd5b61291387823560208401612704565b91505092959194509250565b6000806040838503121561293257600080fd5b61293b8361263f565b915061285e6020840161263f565b600181811c9082168061295d57607f821691505b6020821081141561297e57634e487b7160e01b600052602260045260246000fd5b50919050565b60208082526035908201527f46756e6374696f6e2063616e206f6e6c792062652063616c6c65642062792061604082015274371034b73234bb34b23ab0b61030b1b1b7bab73a1760591b606082015260800190565b60208082526010908201526f23b0b6b29034b9903737ba1037b832b760811b604082015260600190565b6020808252601d908201527f596f7520646f206e6f74206f776e20746869732062756363616e656572000000604082015260600190565b6020808252602d908201527f4552433732313a2063616c6c6572206973206e6f7420746f6b656e206f776e6560408201526c1c881bdc88185c1c1c9bdd9959609a1b606082015260800190565b60008151612a998185602086016125bb565b9290920192915050565b600080845481600182811c915080831680612abf57607f831692505b6020808410821415612adf57634e487b7160e01b86526022600452602486fd5b818015612af35760018114612b0457612b31565b60ff19861689528489019650612b31565b60008b81526020902060005b86811015612b295781548b820152908501908301612b10565b505084890196505b505050505050612b418185612a87565b95945050505050565b606081526000612b5d60608301866125e7565b6020830194909452506001600160a01b0391909116604090910152919050565b634e487b7160e01b600052601160045260246000fd5b6000600019821415612ba757612ba7612b7d565b5060010190565b634e487b7160e01b600052603260045260246000fd5b60008351612bd68184602088016125bb565b835190830190612bea8183602088016125bb565b01949350505050565b604081526000612c0660408301856125e7565b905061ffff831660208301529392505050565b600082821015612c2b57612c2b612b7d565b500390565b600082612c4d57634e487b7160e01b600052601260045260246000fd5b500490565b6000816000190483118215151615612c6c57612c6c612b7d565b500290565b60208082526025908201527f4552433732313a207472616e736665722066726f6d20696e636f72726563742060408201526437bbb732b960d91b606082015260800190565b60208082526032908201527f4552433732313a207472616e7366657220746f206e6f6e20455243373231526560408201527131b2b4bb32b91034b6b83632b6b2b73a32b960711b606082015260800190565b6001600160a01b0385811682528416602082015260408101839052608060608201819052600090612d3b908301846125e7565b9695505050505050565b600060208284031215612d5757600080fd5b815161204281612588565b634e487b7160e01b600052603160045260246000fdfea2646970667358221220cfd4074f7c33990eea6e7b9a8359d331224f7b5ab94f96c5b327241a09510c6164736f6c6343000809003368747470733a2f2f6461622d626f74622e6d7970696e6174612e636c6f75642f697066732f",
  "linkReferences": {},
  "deployedLinkReferences": {}
}