{
  "_format": "hh-sol-artifact-1",
  "contractName": "Buccaneers",
  "sourceName": "contracts/Buccaneers.sol",
  "abi": [
    {
      "inputs": [],
      "stateMutability": "nonpayable",
      "type": "constructor"
    },
    {
      "anonymous": false,
      "inputs": [
        {
          "indexed": false,
          "internalType": "uint256",
          "name": "tokenId",
          "type": "uint256"
        },
        {
          "indexed": false,
          "internalType": "address",
          "name": "owner",
          "type": "address"
        }
      ],
      "name": "AirdropReceipt",
      "type": "event"
    },
    {
      "anonymous": false,
      "inputs": [
        {
          "indexed": true,
          "internalType": "address",
          "name": "owner",
          "type": "address"
        },
        {
          "indexed": true,
          "internalType": "address",
          "name": "approved",
          "type": "address"
        },
        {
          "indexed": true,
          "internalType": "uint256",
          "name": "tokenId",
          "type": "uint256"
        }
      ],
      "name": "Approval",
      "type": "event"
    },
    {
      "anonymous": false,
      "inputs": [
        {
          "indexed": true,
          "internalType": "address",
          "name": "owner",
          "type": "address"
        },
        {
          "indexed": true,
          "internalType": "address",
          "name": "operator",
          "type": "address"
        },
        {
          "indexed": false,
          "internalType": "bool",
          "name": "approved",
          "type": "bool"
        }
      ],
      "name": "ApprovalForAll",
      "type": "event"
    },
    {
      "anonymous": false,
      "inputs": [
        {
          "indexed": false,
          "internalType": "uint256",
          "name": "_fromTokenId",
          "type": "uint256"
        },
        {
          "indexed": false,
          "internalType": "uint256",
          "name": "_toTokenId",
          "type": "uint256"
        }
      ],
      "name": "BatchMetadataUpdate",
      "type": "event"
    },
    {
      "anonymous": false,
      "inputs": [
        {
          "indexed": false,
          "internalType": "string",
          "name": "message",
          "type": "string"
        },
        {
          "indexed": false,
          "internalType": "uint16",
          "name": "battleId",
          "type": "uint16"
        },
        {
          "indexed": false,
          "internalType": "uint16",
          "name": "attackerId",
          "type": "uint16"
        },
        {
          "indexed": false,
          "internalType": "uint16",
          "name": "defenderId",
          "type": "uint16"
        },
        {
          "indexed": false,
          "internalType": "uint16",
          "name": "winnerId",
          "type": "uint16"
        },
        {
          "indexed": false,
          "internalType": "uint16",
          "name": "loserId",
          "type": "uint16"
        }
      ],
      "name": "BattleResult",
      "type": "event"
    },
    {
      "anonymous": false,
      "inputs": [
        {
          "indexed": false,
          "internalType": "string",
          "name": "message",
          "type": "string"
        },
        {
          "indexed": false,
          "internalType": "uint256",
          "name": "tokenId",
          "type": "uint256"
        },
        {
          "indexed": false,
          "internalType": "string",
          "name": "uri",
          "type": "string"
        }
      ],
      "name": "BuccaneerURIUpdate",
      "type": "event"
    },
    {
      "anonymous": false,
      "inputs": [
        {
          "indexed": false,
          "internalType": "string",
          "name": "message",
          "type": "string"
        },
        {
          "indexed": false,
          "internalType": "uint256",
          "name": "charity",
          "type": "uint256"
        }
      ],
      "name": "CharityReceipt",
      "type": "event"
    },
    {
      "anonymous": false,
      "inputs": [
        {
          "indexed": false,
          "internalType": "uint256",
          "name": "_tokenId",
          "type": "uint256"
        }
      ],
      "name": "MetadataUpdate",
      "type": "event"
    },
    {
      "anonymous": false,
      "inputs": [
        {
          "indexed": false,
          "internalType": "string",
          "name": "message",
          "type": "string"
        },
        {
          "indexed": false,
          "internalType": "uint256",
          "name": "tokenId",
          "type": "uint256"
        },
        {
          "indexed": false,
          "internalType": "address",
          "name": "owner",
          "type": "address"
        }
      ],
      "name": "NewBuccaneer",
      "type": "event"
    },
    {
      "anonymous": false,
      "inputs": [
        {
          "indexed": true,
          "internalType": "address",
          "name": "previousOwner",
          "type": "address"
        },
        {
          "indexed": true,
          "internalType": "address",
          "name": "newOwner",
          "type": "address"
        }
      ],
      "name": "OwnershipTransferred",
      "type": "event"
    },
    {
      "anonymous": false,
      "inputs": [
        {
          "indexed": false,
          "internalType": "string",
          "name": "message",
          "type": "string"
        },
        {
          "indexed": false,
          "internalType": "uint16",
          "name": "tokenId",
          "type": "uint16"
        },
        {
          "indexed": false,
          "internalType": "string",
          "name": "trainingType",
          "type": "string"
        }
      ],
      "name": "TrainingResult",
      "type": "event"
    },
    {
      "anonymous": false,
      "inputs": [
        {
          "indexed": true,
          "internalType": "address",
          "name": "from",
          "type": "address"
        },
        {
          "indexed": true,
          "internalType": "address",
          "name": "to",
          "type": "address"
        },
        {
          "indexed": true,
          "internalType": "uint256",
          "name": "tokenId",
          "type": "uint256"
        }
      ],
      "name": "Transfer",
      "type": "event"
    },
    {
      "anonymous": false,
      "inputs": [
        {
          "indexed": false,
          "internalType": "address",
          "name": "owner",
          "type": "address"
        },
        {
          "indexed": false,
          "internalType": "uint256",
          "name": "charity",
          "type": "uint256"
        },
        {
          "indexed": false,
          "internalType": "uint256",
          "name": "treasure",
          "type": "uint256"
        }
      ],
      "name": "TxReceipt",
      "type": "event"
    },
    {
      "inputs": [
        {
          "internalType": "uint256",
          "name": "tokenId",
          "type": "uint256"
        }
      ],
      "name": "airdrop",
      "outputs": [],
      "stateMutability": "nonpayable",
      "type": "function"
    },
    {
      "inputs": [
        {
          "internalType": "address",
          "name": "to",
          "type": "address"
        },
        {
          "internalType": "uint256",
          "name": "tokenId",
          "type": "uint256"
        }
      ],
      "name": "approve",
      "outputs": [],
      "stateMutability": "nonpayable",
      "type": "function"
    },
    {
      "inputs": [
        {
          "internalType": "uint16",
          "name": "attacker",
          "type": "uint16"
        }
      ],
      "name": "attackBuccaneer",
      "outputs": [],
      "stateMutability": "payable",
      "type": "function"
    },
    {
      "inputs": [
        {
          "internalType": "address",
          "name": "owner",
          "type": "address"
        }
      ],
      "name": "balanceOf",
      "outputs": [
        {
          "internalType": "uint256",
          "name": "",
          "type": "uint256"
        }
      ],
      "stateMutability": "view",
      "type": "function"
    },
    {
      "inputs": [
        {
          "internalType": "uint16",
          "name": "battleId",
          "type": "uint16"
        },
        {
          "internalType": "uint16",
          "name": "attacker",
          "type": "uint16"
        },
        {
          "internalType": "uint16",
          "name": "defender",
          "type": "uint16"
        },
        {
          "internalType": "uint16",
          "name": "Winner",
          "type": "uint16"
        },
        {
          "internalType": "uint16",
          "name": "loser",
          "type": "uint16"
        }
      ],
      "name": "battleResults",
      "outputs": [],
      "stateMutability": "nonpayable",
      "type": "function"
    },
    {
      "inputs": [],
      "name": "closeGame",
      "outputs": [],
      "stateMutability": "nonpayable",
      "type": "function"
    },
    {
      "inputs": [
        {
          "internalType": "uint16",
          "name": "tokenId",
          "type": "uint16"
        }
      ],
      "name": "defendBuccaneer",
      "outputs": [],
      "stateMutability": "payable",
      "type": "function"
    },
    {
      "inputs": [],
      "name": "gameOpen",
      "outputs": [
        {
          "internalType": "bool",
          "name": "",
          "type": "bool"
        }
      ],
      "stateMutability": "view",
      "type": "function"
    },
    {
      "inputs": [
        {
          "internalType": "uint256",
          "name": "tokenId",
          "type": "uint256"
        }
      ],
      "name": "getApproved",
      "outputs": [
        {
          "internalType": "address",
          "name": "",
          "type": "address"
        }
      ],
      "stateMutability": "view",
      "type": "function"
    },
    {
      "inputs": [
        {
          "internalType": "address",
          "name": "owner",
          "type": "address"
        },
        {
          "internalType": "address",
          "name": "operator",
          "type": "address"
        }
      ],
      "name": "isApprovedForAll",
      "outputs": [
        {
          "internalType": "bool",
          "name": "",
          "type": "bool"
        }
      ],
      "stateMutability": "view",
      "type": "function"
    },
    {
      "inputs": [],
      "name": "mintBuccaneer",
      "outputs": [],
      "stateMutability": "payable",
      "type": "function"
    },
    {
      "inputs": [],
      "name": "mintOpen",
      "outputs": [
        {
          "internalType": "bool",
          "name": "",
          "type": "bool"
        }
      ],
      "stateMutability": "view",
      "type": "function"
    },
    {
      "inputs": [],
      "name": "name",
      "outputs": [
        {
          "internalType": "string",
          "name": "",
          "type": "string"
        }
      ],
      "stateMutability": "view",
      "type": "function"
    },
    {
      "inputs": [],
      "name": "openGame",
      "outputs": [],
      "stateMutability": "nonpayable",
      "type": "function"
    },
    {
      "inputs": [],
      "name": "openMint",
      "outputs": [],
      "stateMutability": "nonpayable",
      "type": "function"
    },
    {
      "inputs": [],
      "name": "owner",
      "outputs": [
        {
          "internalType": "address",
          "name": "",
          "type": "address"
        }
      ],
      "stateMutability": "view",
      "type": "function"
    },
    {
      "inputs": [
        {
          "internalType": "uint256",
          "name": "tokenId",
          "type": "uint256"
        }
      ],
      "name": "ownerOf",
      "outputs": [
        {
          "internalType": "address",
          "name": "",
          "type": "address"
        }
      ],
      "stateMutability": "view",
      "type": "function"
    },
    {
      "inputs": [],
      "name": "renounceOwnership",
      "outputs": [],
      "stateMutability": "nonpayable",
      "type": "function"
    },
    {
      "inputs": [
        {
          "internalType": "address",
          "name": "from",
          "type": "address"
        },
        {
          "internalType": "address",
          "name": "to",
          "type": "address"
        },
        {
          "internalType": "uint256",
          "name": "tokenId",
          "type": "uint256"
        }
      ],
      "name": "safeTransferFrom",
      "outputs": [],
      "stateMutability": "nonpayable",
      "type": "function"
    },
    {
      "inputs": [
        {
          "internalType": "address",
          "name": "from",
          "type": "address"
        },
        {
          "internalType": "address",
          "name": "to",
          "type": "address"
        },
        {
          "internalType": "uint256",
          "name": "tokenId",
          "type": "uint256"
        },
        {
          "internalType": "bytes",
          "name": "data",
          "type": "bytes"
        }
      ],
      "name": "safeTransferFrom",
      "outputs": [],
      "stateMutability": "nonpayable",
      "type": "function"
    },
    {
      "inputs": [
        {
          "internalType": "address",
          "name": "operator",
          "type": "address"
        },
        {
          "internalType": "bool",
          "name": "approved",
          "type": "bool"
        }
      ],
      "name": "setApprovalForAll",
      "outputs": [],
      "stateMutability": "nonpayable",
      "type": "function"
    },
    {
      "inputs": [
        {
          "internalType": "bytes4",
          "name": "interfaceId",
          "type": "bytes4"
        }
      ],
      "name": "supportsInterface",
      "outputs": [
        {
          "internalType": "bool",
          "name": "",
          "type": "bool"
        }
      ],
      "stateMutability": "view",
      "type": "function"
    },
    {
      "inputs": [],
      "name": "symbol",
      "outputs": [
        {
          "internalType": "string",
          "name": "",
          "type": "string"
        }
      ],
      "stateMutability": "view",
      "type": "function"
    },
    {
      "inputs": [
        {
          "internalType": "uint256",
          "name": "tokenId",
          "type": "uint256"
        }
      ],
      "name": "tokenURI",
      "outputs": [
        {
          "internalType": "string",
          "name": "",
          "type": "string"
        }
      ],
      "stateMutability": "view",
      "type": "function"
    },
    {
      "inputs": [],
      "name": "totalSupply",
      "outputs": [
        {
          "internalType": "uint256",
          "name": "",
          "type": "uint256"
        }
      ],
      "stateMutability": "view",
      "type": "function"
    },
    {
      "inputs": [
        {
          "internalType": "uint16",
          "name": "tokenId",
          "type": "uint16"
        }
      ],
      "name": "trainBuccaneer",
      "outputs": [],
      "stateMutability": "payable",
      "type": "function"
    },
    {
      "inputs": [
        {
          "internalType": "uint16",
          "name": "tokenId",
          "type": "uint16"
        },
        {
          "internalType": "string",
          "name": "trainingType",
          "type": "string"
        }
      ],
      "name": "trainingResults",
      "outputs": [],
      "stateMutability": "nonpayable",
      "type": "function"
    },
    {
      "inputs": [
        {
          "internalType": "address",
          "name": "from",
          "type": "address"
        },
        {
          "internalType": "address",
          "name": "to",
          "type": "address"
        },
        {
          "internalType": "uint256",
          "name": "tokenId",
          "type": "uint256"
        }
      ],
      "name": "transferFrom",
      "outputs": [],
      "stateMutability": "nonpayable",
      "type": "function"
    },
    {
      "inputs": [
        {
          "internalType": "address",
          "name": "newOwner",
          "type": "address"
        }
      ],
      "name": "transferOwnership",
      "outputs": [],
      "stateMutability": "nonpayable",
      "type": "function"
    },
    {
      "inputs": [
        {
          "internalType": "uint256",
          "name": "tokenId",
          "type": "uint256"
        },
        {
          "internalType": "string",
          "name": "newURI",
          "type": "string"
        }
      ],
      "name": "updateURI",
      "outputs": [],
      "stateMutability": "nonpayable",
      "type": "function"
    },
    {
      "inputs": [
        {
          "internalType": "address",
          "name": "",
          "type": "address"
        }
      ],
      "name": "whitelist",
      "outputs": [
        {
          "internalType": "bool",
          "name": "",
          "type": "bool"
        }
      ],
      "stateMutability": "view",
      "type": "function"
    }
  ],
  "bytecode": "0x6007805461ffff60a01b1916905560006009819055600a5560e0604052602560808181529062002b9760a0398051620000419160119160209091019062000238565b50601280546001600160a01b0319908116737689de2dd1d9df3d442dccffaacb0017f5ddcc6617909155601380548216735ffb4861abc8ef94f6e796e6790fa2c388783e3a1790556014805490911673086b8c2422931011418ab6ae6f872f5fcf3aacab179055348015620000b557600080fd5b506040805180820182526009815268109bdd108815195cdd60ba1b602080830191825283518085019094526006845265424f5442544760d01b908401528151919291620001059160009162000238565b5080516200011b90600190602084019062000238565b5050506200013862000132620001e260201b60201c565b620001e6565b600b6020527f753bea6093d059f582ea73da283a3b78ab25744d2a37697da476e92be15661328054600160ff1991821681179092557390f79bf6eb2c4f870365e785982e1f101e93b9066000527f8e4b3cf077aaa1656c0f75208557d5789f41c1c4a29795cae10c79e8677226f68054909116909117905566ea7aa67b2d0000600c5567016345785d8a0000600d55662386f26fc10000600e819055600f8190556010556200031b565b3390565b600780546001600160a01b038381166001600160a01b0319831681179093556040519116919082907f8be0079c531659141344cd1fd0a4f28419497f9722a3daafe3b4186f6b6457e090600090a35050565b8280546200024690620002de565b90600052602060002090601f0160209004810192826200026a5760008555620002b5565b82601f106200028557805160ff1916838001178555620002b5565b82800160010185558215620002b5579182015b82811115620002b557825182559160200191906001019062000298565b50620002c3929150620002c7565b5090565b5b80821115620002c35760008155600101620002c8565b600181811c90821680620002f357607f821691505b602082108114156200031557634e487b7160e01b600052602260045260246000fd5b50919050565b61286c806200032b6000396000f3fe6080604052600436106101d85760003560e01c806370a0823111610102578063b88d4fde11610095578063c87b56dd11610064578063c87b56dd14610512578063e985e9c514610532578063f2fde38b1461057b578063fa12d7821461059b57600080fd5b8063b88d4fde146104aa578063bce6d672146104ca578063c262da19146104df578063c7f22223146104ff57600080fd5b806395d89b41116100d157806395d89b411461042557806397dc4a131461043a5780639b19251a1461045a578063a22cb4651461048a57600080fd5b806370a08231146103bd578063715018a6146103dd578063786b844b146103f25780638da5cb5b1461040757600080fd5b806324bbd0491161017a57806342842e0e1161014957806342842e0e1461034a57806359e8198f1461036a57806362799be41461037d5780636352211e1461039d57600080fd5b806324bbd049146102e057806331cc894b1461030157806331d41c69146103095780633cca779b1461032957600080fd5b8063095ea7b3116101b6578063095ea7b31461026c57806318160ddd1461028e57806319563308146102ad57806323b872dd146102c057600080fd5b806301ffc9a7146101dd57806306fdde0314610212578063081812fc14610234575b600080fd5b3480156101e957600080fd5b506101fd6101f8366004611ff0565b6105b0565b60405190151581526020015b60405180910390f35b34801561021e57600080fd5b506102276105db565b6040516102099190612065565b34801561024057600080fd5b5061025461024f366004612078565b61066d565b6040516001600160a01b039091168152602001610209565b34801561027857600080fd5b5061028c6102873660046120ad565b610694565b005b34801561029a57600080fd5b506008545b604051908152602001610209565b61028c6102bb3660046120e9565b6107af565b3480156102cc57600080fd5b5061028c6102db366004612104565b6108c1565b3480156102ec57600080fd5b506007546101fd90600160a01b900460ff1681565b61028c6108f2565b34801561031557600080fd5b5061028c6103243660046121ec565b610c05565b34801561033557600080fd5b506007546101fd90600160a81b900460ff1681565b34801561035657600080fd5b5061028c610365366004612104565b610c25565b61028c6103783660046120e9565b610c40565b34801561038957600080fd5b5061028c610398366004612233565b610ce3565b3480156103a957600080fd5b506102546103b8366004612078565b610d48565b3480156103c957600080fd5b5061029f6103d836600461226b565b610da8565b3480156103e957600080fd5b5061028c610e2e565b3480156103fe57600080fd5b5061028c610e42565b34801561041357600080fd5b506007546001600160a01b0316610254565b34801561043157600080fd5b50610227610e5a565b34801561044657600080fd5b5061028c610455366004612078565b610e69565b34801561046657600080fd5b506101fd61047536600461226b565b600b6020526000908152604090205460ff1681565b34801561049657600080fd5b5061028c6104a5366004612286565b610eac565b3480156104b657600080fd5b5061028c6104c53660046122c2565b610eb7565b3480156104d657600080fd5b5061028c610eef565b3480156104eb57600080fd5b5061028c6104fa36600461233e565b610f0c565b61028c61050d3660046120e9565b610f7a565b34801561051e57600080fd5b5061022761052d366004612078565b61100d565b34801561053e57600080fd5b506101fd61054d3660046123a3565b6001600160a01b03918216600090815260056020908152604080832093909416825291909152205460ff1690565b34801561058757600080fd5b5061028c61059636600461226b565b61111e565b3480156105a757600080fd5b5061028c611194565b60006001600160e01b03198216632483248360e11b14806105d557506105d5826111b1565b92915050565b6060600080546105ea906123d6565b80601f0160208091040260200160405190810160405280929190818152602001828054610616906123d6565b80156106635780601f1061063857610100808354040283529160200191610663565b820191906000526020600020905b81548152906001019060200180831161064657829003601f168201915b5050505050905090565b600061067882611201565b506000908152600460205260409020546001600160a01b031690565b600061069f82610d48565b9050806001600160a01b0316836001600160a01b031614156107125760405162461bcd60e51b815260206004820152602160248201527f4552433732313a20617070726f76616c20746f2063757272656e74206f776e656044820152603960f91b60648201526084015b60405180910390fd5b336001600160a01b038216148061072e575061072e813361054d565b6107a05760405162461bcd60e51b815260206004820152603d60248201527f4552433732313a20617070726f76652063616c6c6572206973206e6f7420746f60448201527f6b656e206f776e6572206f7220617070726f76656420666f7220616c6c0000006064820152608401610709565b6107aa8383611260565b505050565b600754600160a81b900460ff166107d85760405162461bcd60e51b815260040161070990612411565b600f543410156108435760405162461bcd60e51b815260206004820152603060248201527f596f75206d7573742070617920302e303120657468657220746f20646566656e60448201526f32103cb7bab910313ab1b1b0b732b2b960811b6064820152608401610709565b600f5461084f906112ce565b3361085d61ffff8316610d48565b6001600160a01b0316146108b35760405162461bcd60e51b815260206004820152601d60248201527f596f7520646f206e6f74206f776e20746869732062756363616e6565720000006044820152606401610709565b6108be602880611354565b50565b6108cb3382611611565b6108e75760405162461bcd60e51b81526004016107099061243b565b6107aa83838361168f565b33321461095f5760405162461bcd60e51b815260206004820152603560248201527f46756e6374696f6e2063616e206f6e6c792062652063616c6c65642062792061604482015274371034b73234bb34b23ab0b61030b1b1b7bab73a1760591b6064820152608401610709565b610798600854106109b25760405162461bcd60e51b815260206004820152601f60248201527f416c6c2062756363616e656572732068617665206265656e206d696e746564006044820152606401610709565b336000908152600b602052604090205460ff16806109da57506012546001600160a01b031633145b15610a5757600c54341015610a465760405162461bcd60e51b815260206004820152602c60248201527f596f75206d7573742070617920302e30363620657468657220746f206d696e7460448201526b103090313ab1b1b0b732b2b960a11b6064820152608401610709565b600c54610a52906112ce565b610b17565b600754600160a01b900460ff16610aa65760405162461bcd60e51b815260206004820152601360248201527226b4b73a34b7339034b9903737ba1037b832b760691b6044820152606401610709565b600d54341015610b0b5760405162461bcd60e51b815260206004820152602a60248201527f596f75206d7573742070617920302e3120657468657220746f206d696e74206160448201526910313ab1b1b0b732b2b960b11b6064820152608401610709565b600d54610b17906112ce565b610b23336008546117f3565b60006040518060400160405280600b81526020016a383630b1b2b437b63232b960a91b8152509050610b79600854601183604051602001610b659291906124a4565b60405160208183030381529060405261180d565b604080518082018252601481527313995dc8109d58d8d85b99595c881b5a5b9d195960621b6020820152600854915190917fd5115c50021c97e62a499cd063ce5fb80a83e77a030d3a5a83f720813b9d5a1491610bd9918491339061254b565b60405180910390a160088054906000610bf183612594565b9190505550610c01601980611354565b5050565b610c0d6118df565b610c0182601183604051602001610b659291906124a4565b6107aa83838360405180602001604052806000815250610eb7565b600754600160a81b900460ff16610c695760405162461bcd60e51b815260040161070990612411565b600e54341015610cd75760405162461bcd60e51b815260206004820152603360248201527f596f75206d7573742070617920302e303120657468657220746f206174746163604482015272359030b737ba3432b910313ab1b1b0b732b2b960691b6064820152608401610709565b600e5461084f906112ce565b610ceb6118df565b60006040518060600160405280603381526020016128046033913990507f15898e7100b6aa4be4d266625b5356389ff6e7c397579e40aadb6347e0c58c2b818484604051610d3b939291906125af565b60405180910390a1505050565b6000818152600260205260408120546001600160a01b0316806105d55760405162461bcd60e51b8152602060048201526018602482015277115490cdcc8c4e881a5b9d985b1a59081d1bdad95b88125160421b6044820152606401610709565b60006001600160a01b038216610e125760405162461bcd60e51b815260206004820152602960248201527f4552433732313a2061646472657373207a65726f206973206e6f7420612076616044820152683634b21037bbb732b960b91b6064820152608401610709565b506001600160a01b031660009081526003602052604090205490565b610e366118df565b610e406000611939565b565b610e4a6118df565b6007805461ffff60a01b19169055565b6060600180546105ea906123d6565b610e716118df565b604080518281523360208201527f9d94f3e34b6f52ec4d7cbdf3c0dc3af1b588940096ccfccf8cbbbc6ca982cc7c910160405180910390a150565b610c0133838361198b565b610ec13383611611565b610edd5760405162461bcd60e51b81526004016107099061243b565b610ee984848484611a5a565b50505050565b610ef76118df565b6007805460ff60a01b1916600160a01b179055565b610f146118df565b60006040518060800160405280604381526020016127c16043913990507f9e30a9dc4c733280d54c17e15e06e62da950c09488975567dbbf2b7a66406b97818787878787604051610f6a969594939291906125e8565b60405180910390a1505050505050565b600754600160a81b900460ff16610fa35760405162461bcd60e51b815260040161070990612411565b6010543410156108435760405162461bcd60e51b815260206004820152602f60248201527f596f75206d7573742070617920302e303120657468657220746f20747261696e60448201526e103cb7bab910313ab1b1b0b732b2b960891b6064820152608401610709565b606061101882611201565b60008281526006602052604081208054611031906123d6565b80601f016020809104026020016040519081016040528092919081815260200182805461105d906123d6565b80156110aa5780601f1061107f576101008083540402835291602001916110aa565b820191906000526020600020905b81548152906001019060200180831161108d57829003601f168201915b5050505050905060006110c860408051602081019091526000815290565b90508051600014156110db575092915050565b81511561110d5780826040516020016110f5929190612630565b60405160208183030381529060405292505050919050565b61111684611a8d565b949350505050565b6111266118df565b6001600160a01b03811661118b5760405162461bcd60e51b815260206004820152602660248201527f4f776e61626c653a206e6577206f776e657220697320746865207a65726f206160448201526564647265737360d01b6064820152608401610709565b6108be81611939565b61119c6118df565b6007805460ff60a81b1916600160a81b179055565b60006001600160e01b031982166380ac58cd60e01b14806111e257506001600160e01b03198216635b5e139f60e01b145b806105d557506301ffc9a760e01b6001600160e01b03198316146105d5565b6000818152600260205260409020546001600160a01b03166108be5760405162461bcd60e51b8152602060048201526018602482015277115490cdcc8c4e881a5b9d985b1a59081d1bdad95b88125160421b6044820152606401610709565b600081815260046020526040902080546001600160a01b0319166001600160a01b038416908117909155819061129582610d48565b6001600160a01b03167f8c5be1e5ebec7d5bd14f71427d1e84f3dd0314c0f7b2291e5b200ac8c7c3b92560405160405180910390a45050565b803410156113165760405162461bcd60e51b8152602060048201526015602482015274139bdd08195b9bdd59da08115d1a195c881cd95b9d605a1b6044820152606401610709565b803411156108be57336108fc61132c833461265f565b6040518115909202916000818181858888f19350505050158015610c01573d6000803e3d6000fd5b6000611361606434612676565b9050600061136f8483612698565b9050600061137d8484612698565b6013546040519192506000916001600160a01b039091169084908381818185875af1925050503d80600081146113cf576040519150601f19603f3d011682016040523d82523d6000602084013e6113d4565b606091505b50509050806114255760405162461bcd60e51b815260206004820152601760248201527f43686172697479207472616e73666572206661696c65640000000000000000006044820152606401610709565b6014546040516001600160a01b03909116908390600081818185875af1925050503d8060008114611472576040519150601f19603f3d011682016040523d82523d6000602084013e611477565b606091505b505080915050806114ca5760405162461bcd60e51b815260206004820152601860248201527f5472656173757265207472616e73666572206661696c656400000000000000006044820152606401610709565b6012546040516001600160a01b03909116904790600081818185875af1925050503d8060008114611517576040519150601f19603f3d011682016040523d82523d6000602084013e61151c565b606091505b505080915050806115655760405162461bcd60e51b815260206004820152601360248201527213dd5c881d1c985b9cd9995c8819985a5b1959606a1b6044820152606401610709565b60408051338152602081018590529081018390527f2b3c0372e96b0139236f9e95e88909149e5a3a9b92cf549672128db58049a7ae9060600160405180910390a16040805180820182526013815272446f6e6174696f6e20746f206368617269747960681b602082015290517f9f79a95c7231539f5c3be95c762835c36d4c41acab9f327cb38823f28283d6889061160090839087906126b7565b60405180910390a150505050505050565b60008061161d83610d48565b9050806001600160a01b0316846001600160a01b0316148061166457506001600160a01b0380821660009081526005602090815260408083209388168352929052205460ff165b806111165750836001600160a01b031661167d8461066d565b6001600160a01b031614949350505050565b826001600160a01b03166116a282610d48565b6001600160a01b0316146116c85760405162461bcd60e51b8152600401610709906126d9565b6001600160a01b03821661172a5760405162461bcd60e51b8152602060048201526024808201527f4552433732313a207472616e7366657220746f20746865207a65726f206164646044820152637265737360e01b6064820152608401610709565b826001600160a01b031661173d82610d48565b6001600160a01b0316146117635760405162461bcd60e51b8152600401610709906126d9565b600081815260046020908152604080832080546001600160a01b03199081169091556001600160a01b0387811680865260038552838620805460001901905590871680865283862080546001019055868652600290945282852080549092168417909155905184937fddf252ad1be2c89b69c2b068fc378daa952ba7f163c4a11628f55a4df523b3ef91a4505050565b610c01828260405180602001604052806000815250611b01565b6000828152600260205260409020546001600160a01b03166118885760405162461bcd60e51b815260206004820152602e60248201527f45524337323155524953746f726167653a2055524920736574206f66206e6f6e60448201526d32bc34b9ba32b73a103a37b5b2b760911b6064820152608401610709565b600082815260066020908152604090912082516118a792840190611f41565b506040518281527ff8e1a15aba9398e019f0b49df1a4fde98ee17ae345cb5f6b5e2c27f5033e8ce79060200160405180910390a15050565b6007546001600160a01b03163314610e405760405162461bcd60e51b815260206004820181905260248201527f4f776e61626c653a2063616c6c6572206973206e6f7420746865206f776e65726044820152606401610709565b600780546001600160a01b038381166001600160a01b0319831681179093556040519116919082907f8be0079c531659141344cd1fd0a4f28419497f9722a3daafe3b4186f6b6457e090600090a35050565b816001600160a01b0316836001600160a01b031614156119ed5760405162461bcd60e51b815260206004820152601960248201527f4552433732313a20617070726f766520746f2063616c6c6572000000000000006044820152606401610709565b6001600160a01b03838116600081815260056020908152604080832094871680845294825291829020805460ff191686151590811790915591519182527f17307eab39ab6107e8899845ad3d59bd9653f200f220920489ca2b5937696c31910160405180910390a3505050565b611a6584848461168f565b611a7184848484611b34565b610ee95760405162461bcd60e51b81526004016107099061271e565b6060611a9882611201565b6000611aaf60408051602081019091526000815290565b90506000815111611acf5760405180602001604052806000815250611afa565b80611ad984611c41565b604051602001611aea929190612630565b6040516020818303038152906040525b9392505050565b611b0b8383611cde565b611b186000848484611b34565b6107aa5760405162461bcd60e51b81526004016107099061271e565b60006001600160a01b0384163b15611c3657604051630a85bd0160e11b81526001600160a01b0385169063150b7a0290611b78903390899088908890600401612770565b602060405180830381600087803b158015611b9257600080fd5b505af1925050508015611bc2575060408051601f3d908101601f19168201909252611bbf918101906127a3565b60015b611c1c573d808015611bf0576040519150601f19603f3d011682016040523d82523d6000602084013e611bf5565b606091505b508051611c145760405162461bcd60e51b81526004016107099061271e565b805181602001fd5b6001600160e01b031916630a85bd0160e11b149050611116565b506001949350505050565b60606000611c4e83611e69565b600101905060008167ffffffffffffffff811115611c6e57611c6e612140565b6040519080825280601f01601f191660200182016040528015611c98576020820181803683370190505b5090508181016020015b600019016f181899199a1a9b1b9c1cb0b131b232b360811b600a86061a8153600a8504945084611cd157611cd6565b611ca2565b509392505050565b6001600160a01b038216611d345760405162461bcd60e51b815260206004820181905260248201527f4552433732313a206d696e7420746f20746865207a65726f20616464726573736044820152606401610709565b6000818152600260205260409020546001600160a01b031615611d995760405162461bcd60e51b815260206004820152601c60248201527f4552433732313a20746f6b656e20616c7265616479206d696e746564000000006044820152606401610709565b6000818152600260205260409020546001600160a01b031615611dfe5760405162461bcd60e51b815260206004820152601c60248201527f4552433732313a20746f6b656e20616c7265616479206d696e746564000000006044820152606401610709565b6001600160a01b038216600081815260036020908152604080832080546001019055848352600290915280822080546001600160a01b0319168417905551839291907fddf252ad1be2c89b69c2b068fc378daa952ba7f163c4a11628f55a4df523b3ef908290a45050565b60008072184f03e93ff9f4daa797ed6e38ed64bf6a1f0160401b8310611ea85772184f03e93ff9f4daa797ed6e38ed64bf6a1f0160401b830492506040015b6d04ee2d6d415b85acef81000000008310611ed4576d04ee2d6d415b85acef8100000000830492506020015b662386f26fc100008310611ef257662386f26fc10000830492506010015b6305f5e1008310611f0a576305f5e100830492506008015b6127108310611f1e57612710830492506004015b60648310611f30576064830492506002015b600a83106105d55760010192915050565b828054611f4d906123d6565b90600052602060002090601f016020900481019282611f6f5760008555611fb5565b82601f10611f8857805160ff1916838001178555611fb5565b82800160010185558215611fb5579182015b82811115611fb5578251825591602001919060010190611f9a565b50611fc1929150611fc5565b5090565b5b80821115611fc15760008155600101611fc6565b6001600160e01b0319811681146108be57600080fd5b60006020828403121561200257600080fd5b8135611afa81611fda565b60005b83811015612028578181015183820152602001612010565b83811115610ee95750506000910152565b6000815180845261205181602086016020860161200d565b601f01601f19169290920160200192915050565b602081526000611afa6020830184612039565b60006020828403121561208a57600080fd5b5035919050565b80356001600160a01b03811681146120a857600080fd5b919050565b600080604083850312156120c057600080fd5b6120c983612091565b946020939093013593505050565b803561ffff811681146120a857600080fd5b6000602082840312156120fb57600080fd5b611afa826120d7565b60008060006060848603121561211957600080fd5b61212284612091565b925061213060208501612091565b9150604084013590509250925092565b634e487b7160e01b600052604160045260246000fd5b600067ffffffffffffffff8084111561217157612171612140565b604051601f8501601f19908116603f0116810190828211818310171561219957612199612140565b816040528093508581528686860111156121b257600080fd5b858560208301376000602087830101525050509392505050565b600082601f8301126121dd57600080fd5b611afa83833560208501612156565b600080604083850312156121ff57600080fd5b82359150602083013567ffffffffffffffff81111561221d57600080fd5b612229858286016121cc565b9150509250929050565b6000806040838503121561224657600080fd5b61224f836120d7565b9150602083013567ffffffffffffffff81111561221d57600080fd5b60006020828403121561227d57600080fd5b611afa82612091565b6000806040838503121561229957600080fd5b6122a283612091565b9150602083013580151581146122b757600080fd5b809150509250929050565b600080600080608085870312156122d857600080fd5b6122e185612091565b93506122ef60208601612091565b925060408501359150606085013567ffffffffffffffff81111561231257600080fd5b8501601f8101871361232357600080fd5b61233287823560208401612156565b91505092959194509250565b600080600080600060a0868803121561235657600080fd5b61235f866120d7565b945061236d602087016120d7565b935061237b604087016120d7565b9250612389606087016120d7565b9150612397608087016120d7565b90509295509295909350565b600080604083850312156123b657600080fd5b6123bf83612091565b91506123cd60208401612091565b90509250929050565b600181811c908216806123ea57607f821691505b6020821081141561240b57634e487b7160e01b600052602260045260246000fd5b50919050565b60208082526010908201526f23b0b6b29034b9903737ba1037b832b760811b604082015260600190565b6020808252602d908201527f4552433732313a2063616c6c6572206973206e6f7420746f6b656e206f776e6560408201526c1c881bdc88185c1c1c9bdd9959609a1b606082015260800190565b6000815161249a81856020860161200d565b9290920192915050565b600080845481600182811c9150808316806124c057607f831692505b60208084108214156124e057634e487b7160e01b86526022600452602486fd5b8180156124f4576001811461250557612532565b60ff19861689528489019650612532565b60008b81526020902060005b8681101561252a5781548b820152908501908301612511565b505084890196505b5050505050506125428185612488565b95945050505050565b60608152600061255e6060830186612039565b6020830194909452506001600160a01b0391909116604090910152919050565b634e487b7160e01b600052601160045260246000fd5b60006000198214156125a8576125a861257e565b5060010190565b6060815260006125c26060830186612039565b61ffff8516602084015282810360408401526125de8185612039565b9695505050505050565b60c0815260006125fb60c0830189612039565b61ffff97881660208401529587166040830152509285166060840152908416608083015290921660a090920191909152919050565b6000835161264281846020880161200d565b83519083019061265681836020880161200d565b01949350505050565b6000828210156126715761267161257e565b500390565b60008261269357634e487b7160e01b600052601260045260246000fd5b500490565b60008160001904831182151516156126b2576126b261257e565b500290565b6040815260006126ca6040830185612039565b90508260208301529392505050565b60208082526025908201527f4552433732313a207472616e736665722066726f6d20696e636f72726563742060408201526437bbb732b960d91b606082015260800190565b60208082526032908201527f4552433732313a207472616e7366657220746f206e6f6e20455243373231526560408201527131b2b4bb32b91034b6b83632b6b2b73a32b960711b606082015260800190565b6001600160a01b03858116825284166020820152604081018390526080606082018190526000906125de90830184612039565b6000602082840312156127b557600080fd5b8151611afa81611fda56fe42756363616e65657220426174746c6520526573756c7473205b426174746c652049447c41747461636b65727c446566656e6465727c57696e6e65727c4c6f7365725d42756363616e65657220747261696e696e6720726573756c7473205b546f6b656e2049447c547261696e696e6720547970655da264697066735822122094cc6e604ee90ac88772b6e829ff0cbd621aaea1c450ce34123eea372a5cc13864736f6c6343000809003368747470733a2f2f6461622d626f74622e6d7970696e6174612e636c6f75642f697066732f",
  "linkReferences": {},
  "deployedLinkReferences": {}
}